:0A0D6400EF1FAC0670011E4C600E7C
:0C0D6E007546027547C7D547FDD546FA0B
:030D7A0080E822EC
:100DA4007590F0AF905307F0EF64F06002D322C364
:010DB400221C
:10089B007590FF7590FEE590B47E037F0722E5907F
:1008AB00B4BE037F0B22E590B4DE037F0F22E590ED
:1008BB00B4EE037F13227590FDE590B47D037F06A4
:1008CB0022E590B4BD037F0A22E590B4DD037F0ED1
:1008DB0022E590B4ED037F12227590FBE590B47B7B
:1008EB00037F0522E590B4BB037F0922E590B4DBBF
:1008FB00037F0D22E590B4EB037F11227590F7E592
:10090B0090B477037F0422E590B4B7037F0822E508
:10091B0090B4D7037F0C22E590B4E7037F10227FBE
:02092B000022A8
:0C0E0E007590F0AF905307F0BFF0F52294
:100CCF00E4F545120DA450147F027E00120D64123C
:0E0CDF000DA4500812089B8F45120E0EAF4553
:010CED0022E4
:100B7E000D093F065B4F666D7D077F6F0040800855
:100B8E001EFEFDFBF7EFDFBF7F0816000000000022
:060B9E0000000001080048
:100BB1007F06120B45741E2508F8E6F5807F0712A3
:100BC1000B4574162508F8E6F5807F017E00120DAD
:100BD10064E4F5800508E508C394084003E4F508DA
:010BE10022F1
:0C0C6500120C710F120C710F120C710FA9
:100C7100EFC394085012EDC3940D500C74092DF874
:090C8100E6FE74162FF8A6062207
:030E1A008F4822DC
:0E0DE4007D0BE4FF120C650F120C65020BB1C3
:090DB5007F05120DBED2A17F05DD
:070DBE00AE071FEE70FA22E0
:100CAF00E4FDFCC3ED9FEC9E5015E4FBFA0BBB007B
:0F0CBF00010AEB64794A70F50DBD00010C80E469
:010CCE002203
:0F0DD500D2A0120DBAC2A07F05120DBEC2A1227C
:060D9200120C8A120D5143
:0C0D9800C2A0120DBAD2A07F05020DBE51
:100D7D00EF6004C2A08002D2A0120DB5C2A1D2A014
:050D8D007F05020DBE10
:080D4900120DD57FA0120C8AE7
:100D5100D2A0120DB530A007C2A1120D98C322C2B4
:030D6100A1D322F9
:020C8A00AD07B4
:100C8C00E4FCED30E704D2A08002C2A07F05120D77
:100C9C00BED2A1ED25E0FD7F05120DBEC2A10CBC9C
:020CAC0008E05E
:010CAE002223
:100D2C00E4FC120DBAED25E0FD30A003430501C231
:0C0D3C00A17F05120DBE0CBC08E8AF053D
:010D48002288
:080AC5008F348B358A36893726
:100ACD00E4F539E539C395385030120D49AF34127C
:100ADD000C8A120D51AB35AA36A937120C3AFF12FA
:100AED000D9274012537F537E43536F53605347F2B
:0A0AFD000A7E00120CAF053980C913
:010B070022CB
:0809B9008F3A8B3B8A3C893D1B
:1009C100120D49AF3A120C8A120D51120DD57FA1A9
:1009D100120C8A120D51E4F53FE53E14FFE53FC3C9
:1009E1009F5028120D2CAB3BAA3CA93DEF120C5392
:1009F1007F01120D7D7401253DF53DE4353CF53C4B
:100A01007F0A7E00120CAF053F80CE120D2CAB3B4E
:100A1100AA3CA93DEF120C53E4FF120D7D020D9883
:020BE200AB075F
:100BE400120DD57F90120C8A120D51AF03120D9283
:100BF400120DD57F91120C8A120D51120D2CAD07D6
:0A0C0400E4FF120D7D120D98AF05FC
:010C0E0022C3
:100B4500EF603224FB601314601914601F240370D6
:100B550027E5A0541F4480F5A022E5A0541F44A01A
:100B6500F5A022E5A0541F44C0F5A022E5A0541F1E
:090B750044E0F5A02253A01F2268
:030BA4000142000B
:100DC500758901758C3C758AAFD2A9D2AFD28C22B8
:010E1D0022B2
:010E1E0022B1
:03000B00020C0FD5
:100C0F00C0E0C0F0C0D0758C3C758AAF0542E5429C
:100C1F0075F00A84E5F07002B280E542B46405B263
:0B0C2F0087754200D0D0D0F0D0E0323A
:100800007F01120B45120DF2E4FD7F8E120A2512B4
:100810000CEE7D807F8E120A25120DE4120CCF8F14
:1008200044E544B407F6120B08E52F75F00A84FD81
:10083000E4FF120C71E52F75F00A84ADF07F011210
:100840000C717D0B7F02120C71E52E75F00A84FD90
:100850007F03120C71E52E75F00A84ADF07F04124F
:100860000C717D0B7F05120C71E52D75F00A84FD6E
:100870007F06120C71E52D75F00A84ADF07F07122A
:100880000C71120BB17F017E00120D64120CCF8F20
:0B08900044E544B40790120DE48081A1
:0E0E000081838587898B8D80828486888A8C89
:090BA70007265559230707062112
:040A2100E4FD7F8EE3
:020A2500A9071F
:100A2700D2A4E4FB74017E00A803088005C333CE7B
:100A370033CED8F9FFE9F582EF558224FF92A2D28F
:100A4700A3C2A30BBB08DDE4FB74017E00A8030867
:100A57008005C333CE33CED8F9FFEDF582EF55824B
:0E0A670024FF92A2D2A3C2A30BBB08DDC2A43F
:010A7500225E
:020A7600A907CE
:100A7800E4FDC2A4C2A3D2A4FB74017E00A80308AB
:100A88008005C333CE33CED8F9FFE9F582EF55821E
:100A980024FF92A2D2A3C2A30BBB08DDE4FB30A2C1
:100AA8000D7401A803088002C333D8FC4205D2A301
:0C0AB800C2A30BBB08E8C2A2C2A4AF0599
:010AC400220F
:0E0DF200C2A4C2A3120A217D807F8E020A25B0
:100CEE00120A21E4FCEC900E0793FF74262CF8E612
:0F0CFE00FD120A250CBC07ED7D807F8E020A25B2
:100D0D00120A21E4FCEC900E0793FF742D2CF8E6EB
:0F0D1D00FD120A250CBC07ED7D807F8E020A2592
:100B0800E4FCEC900E0093FF120A7674262CF8A6EB
:100B1800070CBC07EDE4FC74262CF8E6FFC4540F60
:100B2800FEEF540FFF742D2CF8A607EE75F00AA4FB
:0C0B3800FF742D2CF8EF26F60CBC07DB38
:010B4400228E
:0300000002092DC5
:0C092D00787FE4F6D8FD7581480209745B
:100C3A00BB010689828A83E0225002E722BBFE02B8
:090C4A00E32289828A83E49322EB
:100C5300BB010689828A83F0225002F722BBFE0180
:020C6300F3227A
:10093900020800E493A3F8E493A34003F68001F2CC
:1009490008DFF48029E493A3F85407240CC8C333BF
:10095900C4540F4420C8834004F456800146F6DF8E
:10096900E4800B0102040810204080900B7EE47E95
:10097900019360BCA3FF543F30E509541FFEE49383
:10098900A360010ECF54C025E060A840B8E493A34A
:10099900FAE493A3F8E493A3C8C582C8CAC583CA75
:1009A900F0A3C8C582C8CAC583CADFE9DEE780BE2D
:010BB0000044
:00000001FF
