:0A0D1100EF1FAC0670011E4C600ECF
:0C0D1B007540027541C7D541FDD540FA76
:030D270080E8223F
:100D98007590F0AF905307F0EF64F06002D322C370
:010DA8002228
:100800007590FF7590FEE590B47E037F0722E5901A
:10081000B4BE037F0B22E590B4DE037F0F22E59088
:10082000B4EE037F13227590FDE590B47D037F063F
:1008300022E590B4BD037F0A22E590B4DD037F0E6C
:1008400022E590B4ED037F12227590FBE590B47B16
:10085000037F0522E590B4BB037F0922E590B4DB5A
:10086000037F0D22E590B4EB037F11227590F7E52D
:1008700090B477037F0422E590B4B7037F0822E5A4
:1008800090B4D7037F0C22E590B4E7037F10227F5A
:02089000002244
:0C0DF5007590F0AF905307F0BFF0F522AE
:100C9E00E4F542120D9850147F027E00120D1112CF
:0E0CAE000D9850081208008F42120DF5AF424B
:010CBC002215
:100B2F000D093F065B4F666D7D077F6F00408008A4
:100B3F001EFEFDFBF7EFDFBF7F0816000000000071
:060B4F0000000001080097
:100B62007F06120AC1741E2508F8E6F5807F071277
:100B72000AC174162508F8E6F5807F017E00120D81
:100B820011E4F5800508E508C394084003E4F5087C
:010B92002240
:100D2A00EFC394085012EDC3940D500C74092DF8BA
:090D3A00E6FE74162FF8A606224D
:030E17008F4322E4
:090DA9007F05120DB2D2A17F05F5
:070DB200AE071FEE70FA22EC
:100C5E00E4FDFCC3ED9FEC9E5015E4FBFA0BBB00CC
:0F0C6E00010AEB64794A70F50DBD00010C80E4BA
:010C7D002254
:0F0DC900D2A0120DAEC2A07F05120DB2C2A122A0
:060D8600120C16120CFE17
:0C0D8C00C2A0120DAED2A07F05020DB275
:100D5C00EF6004C2A08002D2A0120DA9C2A1D2A041
:050D6C007F05020DB23D
:080CF600120DC97FA0120C16BB
:100CFE00D2A0120DA930A007C2A1120D8CC322C220
:030D0E00A1D3224C
:020C1600AD0728
:100C1800E4FCED30E704D2A08002C2A07F05120DEB
:100C2800B2D2A1ED25E0FD7F05120DB2C2A10CBC28
:020C380008E0D2
:010C3A002297
:100CBD00E4FC120DAEED25E0FD30A003430501C2AD
:0C0CCD00A17F05120DB20CBC08E8AF05B9
:010CD90022F8
:080A05008F348B358A368937E6
:100A0D00E4F539E539C395385030120CF6AF341290
:100A1D000C16120CFEAB35AA36A937120BEBFF12D2
:100A2D000D8674012537F537E43536F53605347FF7
:0A0A3D000A7E00120C5E053980C924
:010A4700228C
:08099D008F3A8B3B8A3C893D37
:1009A500120CF6AF3A120C16120CFE120DC97FA1ED
:1009B500120C16120CFEE4F53FE53E14FFE53FC3AD
:1009C5009F5028120CBDAB3BAA3CA93DEF120C046D
:1009D5007F01120D5C7401253DF53DE4353CF53C88
:1009E5007F0A7E00120C5E053F80CE120CBDAB3B2C
:1009F500AA3CA93DEF120C04E4FF120D5C020D8C1C
:020B9300AB07AE
:100B9500120DC97F90120C16120CFEAF03120D86B2
:100BA500120DC97F91120C16120CFE120CBDAD0769
:0A0BB500E4FF120D5C120D8CAF0579
:010BBF002213
:100AC100EF603224FB601314601914601F2403705B
:100AD10027E5A0541F4480F5A022E5A0541F44A09F
:100AE100F5A022E5A0541F44C0F5A022E5A0541FA3
:090AF10044E0F5A02253A01F22ED
:030B550001440058
:100C7E00E4FDFCC3ED9FEC9E5015E4FBFA0BBB00AC
:0F0C8E00010AEB64794A70F50DBD00010C80E49A
:010C9D002234
:100DB900758901758C3C758AAFD2A9D2AFD28C22C4
:100D7100C2A4C2A3D2A47E08EF1392A2D2A3EFC34E
:040D810013FFDEF48A
:010D8500224B
:0E0DD8007E08EF1392A2D2A3EFC313FFDEF446
:010DE60022EA
:100CDA00E4FFFED2A3C2A330A20D7401A8060880C5
:0B0CEA0002C333D8FC42070EBE08E82E
:010CF50022DC
:0B0E0100120D71AF05120DD8C2A42223
:0A0E0C00E4FE120D71120CDAC2A40C
:010E160022B9
:010E1A0022B5
:010E1B0022B4
:03000B00020BC025
:100BC000C0E0C0F0C0D0758C3C758AAF0544E544E8
:100BD00075F00A84E5F07002B280E544B46405B2B1
:0B0BE00087754400D0D0D0F0D0E03288
:10091E00120DB9120D437F647E00120C7E120C3B39
:10092E007F647E00120C7E120A48E52F75F00A8451
:10093E00FDE4FF120D2AE52F75F00A84ADF07F015C
:10094E00120D2A7D0B7F02120D2AE52E75F00A84F8
:10095E00FD7F03120D2AE52E75F00A84ADF07F049B
:10096E00120D2A7D0B7F05120D2AE52D75F00A84D6
:10097E00FD7F06120D2AE52D75F00A84ADF07F0776
:0F098E00120D2A120B627F0A7E00120C7E8098D7
:0E0DE70081838587898B8D80828486888A8CA3
:090B580007265634120707062196
:100AFA00D2A4E4FEC2A3EF30E004D2A28002C2A2D2
:100B0A00EFC313FFD2A30EBE08EAE4FEC2A3ED3080
:100B1A00E004D2A28002C2A2EDC313FDD2A30EBE8C
:040B2A0008EAC2A46F
:010B2E0022A4
:100A8500E4FED2A4FDC2A3EF30E004D2A28002C2EC
:100A9500A2EFC313FFD2A30DBD08EAE4FDC2A3D2A2
:100AA500A330A20D7401A805088002C333D8FC4207
:0B0AB500060DBD08E8C2A4C2A3AF06F6
:010AC0002213
:100D4300C2A4C2A3E4FD7F8E120AFAE4FD7F8012DF
:090D53000AFA7D807F8E020AFA83
:100C3B00E4FD7F8E120AFAE4FCEC900DEE93FF7448
:100C4B00262CF8E6FD120AFA0CBC07ED7D807F8E90
:030C5B00020AFA90
:100A4800E4FCEC900DE793FF120A8574262CF8A6B7
:100A5800070CBC07EDE4FC74262CF8E6FFC4540F21
:100A6800FEEF540FFF742D2CF8A607EE75F00AA4BC
:0C0A7800FF742D2CF8EF26F60CBC07DBF9
:010A8400224F
:0300000002089261
:0C089200787FE4F6D8FD7581440208D997
:100BEB00BB010689828A83E0225002E722BBFE0208
:090BFB00E32289828A83E493223B
:100C0400BB010689828A83F0225002F722BBFE01CF
:020C1400F322C9
:10089E0002091EE493A3F8E493A34003F68001F249
:1008AE0008DFF48029E493A3F85407240CC8C3335B
:1008BE00C4540F4420C8834004F456800146F6DF2A
:1008CE00E4800B0102040810204080900B2FE47E80
:1008DE00019360BCA3FF543F30E509541FFEE4931F
:1008EE00A360010ECF54C025E060A840B8E493A3E6
:1008FE00FAE493A3F8E493A3C8C582C8CAC583CA11
:10090E00F0A3C8C582C8CAC583CADFE9DEE780BEC8
:010B61000093
:00000001FF
