:0A0E1300EF1FAC0670011E4C600ECC
:0C0E1D00754902754AC7D54AFDD549FA4F
:030E290080E8223C
:100E53007590F0AF905307F0EF64F06002D322C3B4
:010E6300226C
:10089C007590FF7590FEE590B47E037F0722E5907E
:1008AC00B4BE037F0B22E590B4DE037F0F22E590EC
:1008BC00B4EE037F13227590FDE590B47D037F06A3
:1008CC0022E590B4BD037F0A22E590B4DD037F0ED0
:1008DC0022E590B4ED037F12227590FBE590B47B7A
:1008EC00037F0522E590B4BB037F0922E590B4DBBE
:1008FC00037F0D22E590B4EB037F11227590F7E591
:10090C0090B477037F0422E590B4B7037F0822E507
:10091C0090B4D7037F0C22E590B4E7037F10227FBD
:02092C000022A7
:0C0EBD007590F0AF905307F0BFF0F522E5
:100D7E00E4F548120E5350147F027E00120E131229
:0E0D8E000E53500812089C8F48120EBDAF483D
:010D9C002234
:100C16000D093F065B4F666D7D077F6F00408008BC
:100C26001EFEFDFBF7EFDFBF7F0816000000000089
:060C3600000000010800AF
:100C8B007F06120C52741E2508F8E6F5807F0712BA
:100C9B000C5274162508F8E6F5807F017E00120EC3
:100CAB0013E4F5800508E508C394084003E4F50850
:010CBB002216
:0C0D1400120D200F120D200F120D200FE9
:100D2000EFC394085012EDC3940D500C74092DF8C4
:090D3000E6FE74162FF8A6062257
:030EC9008F4B222A
:0E0E93007D0BE4FF120D140F120D14020C8BD8
:100AF500E52F75F00A84FDE4FF120D20E52F75F052
:100B05000A84ADF00F120D207D0B0F120D20E52E7E
:100B150075F00A84FD0F120D20E52E75F00A84ADDF
:100B2500F00F120D207D0B0F120D20E52D75F00A2B
:100B350084FD0F120D20E52D75F00A84ADF00F022E
:020B45000D2081
:090E64007F05120E6DD2A17F057D
:070E6D00AE071FEE70FA2230
:100D5E00E4FDFCC3ED9FEC9E5015E4FBFA0BBB00CB
:0F0D6E00010AEB64794A70F50DBD00010C80E4B9
:010D7D002253
:0F0E8400D2A0120E69C2A07F05120E6DC2A1226C
:060E4100120D39120E0033
:0C0E4700C2A0120E69D2A07F05020E6D41
:100E2C00EF6004C2A08002D2A0120E64C2A1D2A0B4
:050E3C007F05020E6DB0
:080DF800120E847FA0120D39D8
:100E0000D2A0120E6430A007C2A1120E47C322C2A4
:030E1000A1D32249
:020D3900AD0704
:100D3B00E4FCED30E704D2A08002C2A07F05120EC6
:100D4B006DD2A1ED25E0FD7F05120E6DC2A10CBC8D
:020D5B0008E0AE
:010D5D002273
:100DDB00E4FC120E69ED25E0FD30A003430501C2D2
:0C0DEB00A17F05120E6D0CBC08E8AF05DE
:010DF70022D9
:080B96008F3C8B3D8A3E893F34
:100B9E00E4F541E541C395405030120DF8AF3C12DB
:100BAE000D39120E00AB3DAA3EA93F120CE9FF1201
:100BBE000E417401253FF53FE4353EF53E053C7F81
:0A0BCE000A7E00120D5E054180C989
:010BD80022FA
:080A38008F428B438A4489457B
:100A4000120DF8AF42120D39120E00120E847FA162
:100A5000120D39120E00E4F547E54614FFE547C3D1
:100A60009F5028120DDBAB43AA44A945EF120D029B
:100A70007F01120E2C74012545F545E43544F544FB
:100A80007F0A7E00120D5E054780CE120DDBAB4360
:100A9000AA44A945EF120D02E4FF120E2C020E47E4
:020CBC00AB0784
:100CBE00120E847F90120D39120E00AF03120E41E8
:100CCE00120E847F91120D39120E00120DDBAD073C
:0A0CDE00E4FF120E2C120E47AF05C2
:010CE80022E9
:100C5200EF603224FB601314601914601F240370C8
:100C620027E5A0541F4480F5A022E5A0541F44A00C
:100C7200F5A022E5A0541F44C0F5A022E5A0541F10
:090C820044E0F5A02253A01F225A
:0C0C3C00013500013700013900013800CB
:100E7400758901758C3C758AAFD2A9D2AFD28C2208
:010ECC002203
:010ECD002202
:03000B00020800E8
:10080000C0E0C0F0C083C082C0D075D000C000C0BE
:1008100001C002C003C004C005C006C007758C3CFF
:10082000758AAF0538E53875F01484E5F0704AE54F
:100830003964047044120AF5E537703A753701E5FA
:1008400035700C7D0AFF120D207D0A7F018022E5A4
:1008500035B4010D7D0A7F03120D207D0A7F0480CF
:1008600010E535B402137D0A7F06120D207D0A7F44
:1008700007120D208003753700E538B4640375381E
:1008800000D007D006D005D004D003D002D001D0CC
:0C08900000D0D0D082D083D0F0D0E03275
:1009BA00120E747F01120C52120EA1E4FD7F8E12E8
:1009CA000AA4120D9D7D807F8E120AA48024120D26
:1009DA007E8F3BE53BB407F6120BD9120AF5120CCF
:1009EA008B7F017E00120E13120D7E8F3BE53BB406
:1009FA000705120E9380D7E53BB404DC753904125F
:100A0A000E93120AF5120C8B120D7E8F3BE53BB446
:100A1A00070A120E93E4F539F53580BCE53BB404B8
:0E0A2A00E40535E53575F0038485F03580D799
:0E0EAF0081838587898B8D80828486888A8CDA
:090C480007265559230707062170
:040AA000E4FD7F8E64
:020AA400A907A0
:100AA600D2A4E4FB74017E00A803088005C333CEFC
:100AB60033CED8F9FFE9F582EF558224FF92A2D210
:100AC600A3C2A30BBB08DDE4FB74017E00A80308E8
:100AD6008005C333CE33CED8F9FFEDF582EF5582CC
:0E0AE60024FF92A2D2A3C2A30BBB08DDC2A4C0
:010AF40022DF
:020B4700A907FC
:100B4900E4FDC2A4C2A3D2A4FB74017E00A80308D9
:100B59008005C333CE33CED8F9FFE9F582EF55824C
:100B690024FF92A2D2A3C2A30BBB08DDE4FB30A2EF
:100B79000D7401A803088002C333D8FC4205D2A32F
:0C0B8900C2A30BBB08E8C2A2C2A4AF05C7
:010B9500223D
:0E0EA100C2A4C2A3120AA07D807F8E020AA402
:100D9D00120AA0E4FCEC900EB693FF74262CF8E634
:0F0DAD00FD120AA40CBC07ED7D807F8E020AA404
:100DBC00120AA0E4FCEC900EB693FF742D2CF8E60E
:0F0DCC00FD120AA40CBC07ED7D807F8E020AA4E5
:100BD900E4FCEC900EAF93FF120B4774262CF8A699
:100BE900070CBC07EDE4FC74262CF8E6FFC4540F8F
:100BF900FEEF540FFF742D2CF8A607EE75F00AA42A
:0C0C0900FF742D2CF8EF26F60CBC07DB66
:010C150022BC
:0300000002092EC4
:0C092E00787FE4F6D8FD75814B02097556
:100CE900BB010689828A83E0225002E722BBFE0209
:090CF900E32289828A83E493223C
:100D0200BB010689828A83F0225002F722BBFE01D0
:020D1200F322CA
:10093A000209BAE493A3F8E493A34003F68001F210
:10094A0008DFF48029E493A3F85407240CC8C333BE
:10095A00C4540F4420C8834004F456800146F6DF8D
:10096A00E4800B0102040810204080900C16E47EFB
:10097A00019360BCA3FF543F30E509541FFEE49382
:10098A00A360010ECF54C025E060A840B8E493A349
:10099A00FAE493A3F8E493A3C8C582C8CAC583CA74
:1009AA00F0A3C8C582C8CAC583CADFE9DEE780BE2C
:010C510000A2
:00000001FF
