:0A0D0600EF1FAC0670011E4C600EDA
:0C0D10007544027545C7D545FDD544FA71
:030D1C0080E8224A
:100D71007590F0AF905307F0EF64F06002D322C397
:010D8100224F
:100800007590FF7590FEE590B47E037F0722E5901A
:10081000B4BE037F0B22E590B4DE037F0F22E59088
:10082000B4EE037F13227590FDE590B47D037F063F
:1008300022E590B4BD037F0A22E590B4DD037F0E6C
:1008400022E590B4ED037F12227590FBE590B47B16
:10085000037F0522E590B4BB037F0922E590B4DB5A
:10086000037F0D22E590B4EB037F11227590F7E52D
:1008700090B477037F0422E590B4B7037F0822E5A4
:1008800090B4D7037F0C22E590B4E7037F10227F5A
:02089000002244
:0C0DBF007590F0AF905307F0BFF0F522E4
:100CAF00E4F546120D7150147F027E00120D0612EC
:0E0CBF000D7150081208008F46120DBFAF468F
:010CCD002204
:100B60000D093F065B4F666D7D077F6F0040800873
:100B70001EFEFDFBF7EFDFBF7F0816000000000040
:060B800000000001080066
:100B93007F06120B27741E2508F8E6F5807F0712DF
:100BA3000B2774162508F8E6F5807F017E00120DE9
:100BB30006E4F5800508E508C394084003E4F50856
:010BC300220F
:100D1F00EFC394085012EDC3940D500C74092DF8C5
:090D2F00E6FE74162FF8A6062258
:030DCB008F47222D
:090D82007F05120D8BD2A17F0543
:070D8B00AE071FEE70FA2213
:100C8F00E4FDFCC3ED9FEC9E5015E4FBFA0BBB009B
:0F0C9F00010AEB64794A70F50DBD00010C80E489
:010CAE002223
:0F0DA200D2A0120D87C2A07F05120D8BC2A12215
:060D4D00120C47120CF32A
:0C0D5300C2A0120D87D2A07F05020D8BFC
:100D3800EF6004C2A08002D2A0120D82C2A1D2A08C
:050D48007F05020D8B88
:080CEB00120DA27FA0120C47BC
:100CF300D2A0120D8230A007C2A1120D53C322C28B
:030D0300A1D32257
:020C4700AD07F7
:100C4900E4FCED30E704D2A08002C2A07F05120DBA
:100C59008BD2A1ED25E0FD7F05120D8BC2A10CBC45
:020C690008E0A1
:010C6B002266
:100CCE00E4FC120D87ED25E0FD30A003430501C2C3
:0C0CDE00A17F05120D8B0CBC08E8AF05CF
:010CEA0022E7
:080AA7008F348B358A36893744
:100AAF00E4F539E539C395385030120CEBAF3412F9
:100ABF000C47120CF3AB35AA36A937120C1CFF12D8
:100ACF000D4D74012537F537E43536F53605347F8E
:0A0ADF000A7E00120C8F053980C951
:010AE90022EA
:08099F008F3A8B3B8A3C893D35
:1009A700120CEBAF3A120C47120CF3120DA27FA1F7
:1009B700120C47120CF3E4F53FE53E14FFE53FC385
:1009C7009F5028120CCEAB3BAA3CA93DEF120C3529
:1009D7007F01120D387401253DF53DE4353CF53CAA
:1009E7007F0A7E00120C8F053F80CE120CCEAB3BE8
:1009F700AA3CA93DEF120C35E4FF120D38020D5346
:020BC400AB077D
:100BC600120DA27F90120C47120CF3AF03120D4DBB
:100BD600120DA27F91120C47120CF3120CCEAD0728
:0A0BE600E4FF120D38120D53AF05A5
:010BF00022E2
:100B2700EF603224FB601314601914601F240370F4
:100B370027E5A0541F4480F5A022E5A0541F44A038
:100B4700F5A022E5A0541F44C0F5A022E5A0541F3C
:090B570044E0F5A02253A01F2286
:030B860001420029
:100D9200758901758C3C758AAFD2A9D2AFD28C22EB
:010DCE002202
:010DCF002201
:03000B00020BF1F4
:100BF100C0E0C0F0C0D0758C3C758AAF0542E542BB
:100C010075F00A84E5F07002B280E542B46405B281
:0B0C110087754200D0D0D0F0D0E03258
:10091E007F01120B27120D5FE4FD7F8E120A071264
:10092E000C6C7D807F8E120A07120AEAE52F75F095
:10093E000A84FDE4FF120D1FE52F75F00A84ADF059
:10094E007F01120D1F7D0B7F02120D1FE52E75F01C
:10095E000A84FD7F03120D1FE52E75F00A84ADF09B
:10096E007F04120D1F7D0B7F05120D1FE52D75F0F7
:10097E000A84FD7F06120D1FE52D75F00A84ADF079
:10098E007F07120D1F120B937F017E00120D068042
:01099E0098C0
:0E0DB10081838587898B8D80828486888A8CD9
:090B890007265559230707062130
:020A0700A9073D
:100A0900D2A4E4FB74017E00A803088005C333CE99
:100A190033CED8F9FFE9F582EF558224FF92A2D2AD
:100A2900A3C2A30BBB08DDE4FB74017E00A8030885
:100A39008005C333CE33CED8F9FFEDF582EF558269
:0E0A490024FF92A2D2A3C2A30BBB08DDC2A45D
:010A5700227C
:020A5800A907EC
:100A5A00E4FDC2A4C2A3D2A4FB74017E00A80308C9
:100A6A008005C333CE33CED8F9FFE9F582EF55823C
:100A7A0024FF92A2D2A3C2A30BBB08DDE4FB30A2DF
:100A8A000D7401A803088002C333D8FC4205D2A31F
:0C0A9A00C2A30BBB08E8C2A2C2A4AF05B7
:010AA600222D
:100D5F00C2A4C2A3E4FD7F8E120A077D807F8E029C
:020D6F000A0771
:100C6C00E4FD7F8E120A07E4FCEC900DB893FF7440
:100C7C00262CF8E6FD120A070CBC07ED7D807F8E52
:030C8C00020A0752
:100AEA00E4FCEC900DB193FF120A5874262CF8A678
:100AFA00070CBC07EDE4FC74262CF8E6FFC4540F7F
:100B0A00FEEF540FFF742D2CF8A607EE75F00AA419
:0C0B1A00FF742D2CF8EF26F60CBC07DB56
:010B260022AC
:0300000002089261
:0C089200787FE4F6D8FD7581470208D994
:100C1C00BB010689828A83E0225002E722BBFE02D6
:090C2C00E32289828A83E4932209
:100C3500BB010689828A83F0225002F722BBFE019E
:020C4500F32298
:10089E0002091EE493A3F8E493A34003F68001F249
:1008AE0008DFF48029E493A3F85407240CC8C3335B
:1008BE00C4540F4420C8834004F456800146F6DF2A
:1008CE00E4800B0102040810204080900B60E47E4F
:1008DE00019360BCA3FF543F30E509541FFEE4931F
:1008EE00A360010ECF54C025E060A840B8E493A3E6
:1008FE00FAE493A3F8E493A3C8C582C8CAC583CA11
:10090E00F0A3C8C582C8CAC583CADFE9DEE780BEC8
:010B92000062
:00000001FF
