:0A0A0A00EF1FAC0670011E4C600ED9
:0C0A1400753F027540C7D540FDD53FFA84
:030A200080E82249
:100A76007590F0AF905307F0EF64F06002D322C395
:010A8600224D
:10052C007590FF7590FEE590B47E037F0722E590F1
:10053C00B4BE037F0B22E590B4DE037F0F22E5905F
:10054C00B4EE037F13227590FDE590B47D037F0616
:10055C0022E590B4BD037F0A22E590B4DD037F0E43
:10056C0022E590B4ED037F12227590FBE590B47BED
:10057C00037F0522E590B4BB037F0922E590B4DB31
:10058C00037F0D22E590B4EB037F11227590F7E504
:10059C0090B477037F0422E590B4B7037F0822E57B
:1005AC0090B4D7037F0C22E590B4E7037F10227F31
:0205BC0000221B
:0C0AC2007590F0AF905307F0BFF0F522E4
:1009B600E4F53E120A7650147F027E00120A0A12ED
:0E09C6000A76500812052C8F3E120AC2AF3E70
:0109D4002200
:1007DC000D093F065B4F666D7D077F6F00408008FB
:1007EC001EFEFDFBF7EFDFBF7F08160000000000C8
:0607FC00000000010800EE
:1008C6007F06120859741E2508F8E6F5807F071280
:1008D600085974162508F8E6F5807F017E00120A8D
:1008E6000AE4F5800508E508C394084003E4F50822
:0108F60022DF
:0C094B001209570F1209570F1209570F1D
:10095700EFC394085012EDC3940D500C74092DF891
:09096700E6FE74162FF8A6062224
:030003008F412208
:0E0AA6007D0BE4FF12094B0F12094B0208C62C
:1006A700E52F75F00A84FDE4FF120957E52F75F071
:1006B7000A84ADF00F1209577D0B0F120957E52E6B
:1006C70075F00A84FD0F120957E52E75F00A84ADFF
:1006D700F00F1209577D0B0F120957E52D75F00A18
:1006E70084FD0F120957E52D75F00A84ADF00F024E
:0206F7000957A1
:10085900EF603224FB601314601914601F240370C5
:1008690027E5A0541F4480F5A022E5A0541F44A009
:10087900F5A022E5A0541F44C0F5A022E5A0541F0D
:0908890044E0F5A02253A01F2257
:10080200013500013700013900023C0000013800C7
:100A8700758901758C3C758AAFD2A9D2AFD28C22F9
:0100060022D7
:0100070022D6
:03000B000204905C
:10049000C0E0C0F0C083C082C0D075D000C000C032
:1004A00001C002C003C004C005C006C007758C3C73
:1004B000758AAF0538E53875F01484E5F0704AE5C3
:1004C00039640470441206A7E537703A753701E5C0
:1004D00035700C7D0AFF1209577D0A7F018022E5E5
:1004E00035B4010D7D0A7F031209577D0A7F048010
:1004F00010E535B402137D0A7F061209577D0A7F85
:10050000071209578003753700E538B4640375385E
:1005100000D007D006D005D004D003D002D001D03F
:0C05200000D0D0D082D083D0F0D0E032E8
:1002D600D2A1D2A01207928E3C8F3D120A877F01CF
:1002E600120859120A52E4FD7F8E120656120A3B74
:1002F6007D807F8E12065680281209B68F3BE53B1D
:10030600640760030203E612081C1206A71208C659
:100316007F017E00120A0A1209B68F3BE53BB4073D
:1003260005120AA680D3E53BB404DC753904120A2B
:10033600A61206A71208C61209B68F3BE53BB407FC
:100346000D120AA6E4F539F53512089280B9E53B97
:10035600B4040D0535E53575F0038485F035807AEE
:10036600E53B640B7038E535B4020E052DE52DC36B
:10037600943C4066E4F52D8061E535B4010E052E0A
:10038600E52EC3943C4053E4F52E804EE535704A85
:10039600052FE52FC394184041E4F52F803CE53B3B
:1003A600640A7036E535B4020E152DE52DC39400AA
:1003B6005028752D3B8023E535B4010E152EE52E0C
:1003C600C394005015752E3B8010E535700C152F23
:1003D600E52FC394005003752F171208C602033A7F
:1003E600E53B640660030202FF120AA6C2A91207D1
:1003F600928E3C8F3DD2A97D0BE4FF1209577D01F9
:100406007F011209577D0B7F021209577D0A7F0370
:10041600120957AE3CAF3D7C037DE8120273AD076F
:100426007F04120957AE3CAF3D7C037DE812027390
:100436007E007F64CFCDCFCECCCE120273AD077FC8
:1004460005120957AE3CAF3D7C007D641202737EF7
:10045600007F0ACFCDCFCECCCE120273AD077F067A
:10046600120957AE3CAF3D7C007D0A1202737F072E
:100476001209571208C61209B68F3BE53B6407609E
:0A048600030203F2120AA60202FFAD
:0E0AB40081838587898B8D80828486888A8CD9
:09081200072655592307070621AA
:0C064A00EC900ABB93FF74262CF8E6FD30
:02065600A907F2
:10065800D2A4E4FB74017E00A803088005C333CE4E
:1006680033CED8F9FFE9F582EF558224FF92A2D262
:10067800A3C2A30BBB08DDE4FB74017E00A803083A
:100688008005C333CE33CED8F9FFEDF582EF55821E
:0E06980024FF92A2D2A3C2A30BBB08DDC2A412
:0106A6002231
:0206F900A9074F
:1006FB00E4FDC2A4C2A3D2A4FB74017E00A803082C
:10070B008005C333CE33CED8F9FFE9F582EF55829E
:10071B0024FF92A2D2A3C2A30BBB08DDE4FB30A241
:10072B000D7401A803088002C333D8FC4205D2A381
:0C073B00C2A30BBB08E8C2A2C2A4AF0519
:01074700228F
:100A5200C2A4C2A3E4FD7F8E1206567D807F8E0261
:020A6200065636
:100A3B00E4FD7F8E120656E4FC12064A0CBC07F945
:070A4B007D807F8E0206563C
:10089200E4FD7F8E120656E4FC742D2CF8E6FF75FB
:1008A200F00A84C454F0FEEF75F00A84EE25F0FFDE
:1008B20074262CF8A60712064A0CBC07DC7D807F42
:0408C2008E02065646
:10081C00E4FCEC900AB493FF1206F974262CF8A6AB
:10082C00070CBC07EDE4FC74262CF8E6FFC4540F4F
:10083C00FEEF540FFF742D2CF8A607EE75F00AA4EA
:0C084C00FF742D2CF8EF26F60CBC07DB27
:01085800227D
:1009D5007F057E007D707C00ED1D70011CED4C7067
:0A09E500F7EF1F70011EEF4E70EADD
:0109EF0022E5
:090A640024FF92A0120A6DD2A138
:080A6D00000000007F02DFFE23
:010A7500225E
:0F0A9700D2A0D2A1120A6DC2A0120A6DC2A12272
:0C0A2300120925AD077C00E4FF120ACE8A
:0C0A2F00C2A0D2A1120A6DD2A0020A6D72
:0808F700120A2F120A977F91EB
:0208FF00AD0743
:10090100E4FB74807E00A803088006CEA2E713CE24
:1009110013D8F8FFEDF582EF5582120A64C2A10BDC
:03092100BB08DF31
:0109240022B0
:10092500E4FED2A0FDD2A1120A6D30A00D7480A8FC
:1009350005088002C313D8FC4206C2A1120A6D0D38
:05094500BD08E2AF0651
:01094A00228A
:0C0ACE00EFF4120A64C2A1D2A0020A6D6B
:0B0995001208FF1209A0AF041208FFB7
:1009A000D2A0120A68A2A0E433FE30A003120A2FDC
:0509B000C2A1EEF4FFFE
:0109B500221F
:1009F000AC05AA07120A977FA01208FF1209A0AF40
:0A0A000002120995120A2F0209D50F
:02097000AC07D2
:10097200120A977FA0120995120A977FA11208FF07
:100982001209A0120925AE077F01120ACE120A2F00
:02099200AF06AE
:010994002240
:10074800120A977F901208FF1209A0EF7002801614
:100758007F011208FF1209A0EF700280091208F742
:100768001209A0EF7004FE7FFF22120A23E412018F
:10077800B97B007A40799C784512000EE4FBFA793F
:090788007F78431201171201F2FF
:010791002245
:10079200120A977F901208FF1209A0EF70028016CA
:1007A200E4FF1208FF1209A0EF700280091208F795
:1007B2001209A0EF7004FE7FFF22120A23E4120145
:1007C200B97B007A40799C784512000EE4FBFA79F5
:0907D2007F78431201171201F2B5
:0107DB0022FB
:10000E00EC4D6011E8497017ED33EC3304600DE4EC
:10001E00FCFFFEFD22E933E8330470F802025E12A3
:10002E00022958046009E4CC2481500628500902A4
:10003E000268284003020265C0E0EB4A7044B980B2
:10004E0006D0E0FB020254EF4E701CBD8008EBFFA1
:10005E00EAFEE9FD80EBE98DF0A4FEE5F00200F783
:10006E00E9CDF9EAFEEBFFEF89F0A4FCE5F0CE89CD
:10007E00F0A42EFFE435F0CD89F0A42DFEE435F08A
:10008E008067EF4E7005BD80D780C3EF8BF0A4ACB8
:10009E00F0EE8BF0A42CFCE435F0F8EF8AF0A42CF3
:1000AE00E5F038FCE433CB8DF0A42CFCE5F03BF806
:1000BE00EE8AF0A42CFCE5F038F8E433CF89F0A4F6
:1000CE002CFCE5F038CF3400CE89F0A42FFFE5F0FC
:1000DE003EFEE433C98DF0A42EFEE5F039CD8AF054
:1000EE00A42FFFE5F03EFEE43DFD33D0E0FB5007CC
:1000FE000BBB000F020268EC2CFCEF33FFEE33FE5D
:06010E00ED33FD0202408A
:10011400020268EC5D046005E85904700302025EA3
:10012400120229580460F6EC4860F2EC7004FDFEFB
:10013400FF22C860DB2481C85009C39860025006BE
:100144000202659850CAF582E9294B4A7005AB82D0
:1001540002025475F0007C1A7880C3EF9BEE9AED8E
:1001640099400DC3EF9BFFEE9AFEED99FDE842F036
:10017400DC23ACF0D0E0FFD0E0FED0E0FDAB822089
:10018400E7101BEB60BAEC2CFCEF33FFEE33FEED13
:1001940033FD020240E803F830E705C0F075F000D3
:1001A400EF2FFFEE33FEED33FD40B830E7C280AAF7
:1001B40075F020800E75F010800575F0087D007EC6
:1001C400007F003392D530D5031202C8EC334010BF
:1001D400EF33FFEE33FEED33FDEC33FCD5F0ED22CF
:0E01E400E5F0247EA2D513CC92E7CDCEFF220B
:1001F200EDD2E7CD33EC3392D524814006E4FFFE05
:10020200FDFC22FCE4CFCECDCC24E0501174FF8063
:10021200EDC3CC13CCCD13CDCE13CECF13CF047000
:07022200F030D5DE0202C836
:10022900E9D2E7C933E833F892D5EDD2E7CD33EC1B
:0702390033FC5002B2D52294
:10024000EC30E7100FBF000C0EBE00080DBD00041F
:100250000BEB6014A2D5EB13FCED92E7FD2274FFCB
:10026000FCFDFEFF22E480F8A2D574FF13FC7D8024
:03027000E480EF38
:030000000205BE38
:0C05BE00787FE4F6D8FD75814102060547
:10027300BC000BBE0029EF8DF084FFADF022E4CC6F
:10028300F875F008EF2FFFEE33FEEC33FCEE9DEC38
:10029300984005FCEE9DFE0FD5F0E9E4CEFD22ED7E
:1002A300F8F5F0EE8420D21CFEADF075F008EF2FC8
:1002B300FFED33FD4007985006D5F0F222C398FDB9
:0502C3000FD5F0EA2256
:0E02C800C3E49FFFE49EFEE49DFDE49CFC2247
:1005CA000202D6E493A3F8E493A34003F68001F26F
:1005DA0008DFF48029E493A3F85407240CC8C33332
:1005EA00C4540F4420C8834004F456800146F6DF01
:1005FA00E4800B01020408102040809007DCE47EAE
:10060A00019360BCA3FF543F30E509541FFEE493F5
:10061A00A360010ECF54C025E060A840B8E493A3BC
:10062A00FAE493A3F8E493A3C8C582C8CAC583CAE7
:10063A00F0A3C8C582C8CAC583CADFE9DEE780BE9F
:01081B0000DC
:00000001FF
