:0A0E9A00EF1FAC0670011E4C600E45
:0C0EA400751B02751CC7D51CFDD51BFA80
:030EB00080E822B5
:100F06007590F0AF905307F0EF64F06002D322C300
:010F160022B8
:1008CA007590FF7590FEE590B47E037F0722E59050
:1008DA00B4BE037F0B22E590B4DE037F0F22E590BE
:1008EA00B4EE037F13227590FDE590B47D037F0675
:1008FA0022E590B4BD037F0A22E590B4DD037F0EA2
:10090A0022E590B4ED037F12227590FBE590B47B4B
:10091A00037F0522E590B4BB037F0922E590B4DB8F
:10092A00037F0D22E590B4EB037F11227590F7E562
:10093A0090B477037F0422E590B4B7037F0822E5D9
:10094A0090B4D7037F0C22E590B4E7037F10227F8F
:02095A00002279
:0C0F52007590F0AF905307F0BFF0F5224F
:100E4600E4F51A120F0650147F027E00120E9A1253
:0E0E56000F0650081208CA8F1A120F52AF1A58
:010E6400226B
:100B20000D223F065B4F666D7D077F6F004080089A
:100B300037FEFDFBF7EFDFBF7F082F00000000004E
:060B40000000000121008D
:100D56007F06120CE974372521F8E6F5807F071225
:100D66000CE9742F2521F8E6F5807F017E00120E2E
:100D76009AE4F5800521E521C394084003E4F521B2
:010D8600224A
:0C0DDB00120DE70F120DE70F120DE70FCD
:100DE700EFC394085012EDC3940D500C74222DF8E4
:090DF700E6FE742F2FF8A6062277
:030003008F1D222C
:0E0F36007D0BE4FF120DDB0F120DDB020D56DA
:100B7700E54875F00A84FDE4FF120DE7E54875F0D6
:100B87000A84ADF00F120DE77D0B0F120DE7E54755
:100B970075F00A84FD0F120DE7E54775F00A84AD7D
:100BA700F00F120DE77D0B0F120DE7E54675F00A02
:100BB70084FD0F120DE7E54675F00A84ADF00F02CC
:020BC7000DE738
:100CE900EF603224FB601314601914601F24037031
:100CF90027E5A0541F4480F5A022E5A0541F44A075
:100D0900F5A022E5A0541F44C0F5A022E5A0541F78
:090D190044E0F5A02253A01F22C2
:100B460001080001090001110002160000020C0B49
:100B5600B8020A03E8010E00011800011400010F93
:070B66000001130001100063
:100F1700758901758C3C758AAFD2A9D2AFD28C2264
:0100060022D7
:0100070022D6
:1009E800E4FF120E008F15E515B4FF16E4F50FF5B8
:1009F8000EF518F514750C0B750DB8750A03750B03
:100A0800E8227F01120E008F0F7F02120E008F0E58
:100A18007F03120E008F187F04120E008F147F05BB
:100A2800120E00EF7F00FEC007C0067F06120E0000
:100A3800EFFDD0E0F50CD0E04DF50D7F07120E006C
:100A4800EF7F00FEC007C0067F08120E00EFFDD042
:090A5800E0F50AD0E04DF50B2297
:100A6100120CACE4FDFF120E80A200E433FD7F0105
:100A7100120E80AD487F02120E80AD477F03120E29
:100A810080AD467F04120E80E50CFF3395E0AD0783
:100A91007F05120E80E50DFD7F06120E80E50AFF2F
:100AA1003395E0AD077F07120E80E50BFD7F08123D
:100AB1000E8085480E854718854614A200E433F55B
:020AC1000F2202
:03000B000206C426
:1006C400C0E0C0F0C083C082C0D075D000C000C0FC
:1006D40001C002C003C004C005C006C007758C3C3D
:1006E400758AAF0510E51075F01484E5F060030217
:1006F40008A7C2A9120C628E168F17D2A9D3E517C8
:10070400950DE50C6480F8E516648098400BE513BC
:100714007029751301D200801AC3E517950BE50AF9
:100724006480F8E516648098500EE513700D751317
:1007340001C200120A618003751300E5116404709C
:1007440048120B77E509703E750901E508700D7DC7
:100754000AFF120DE77D0A7F0102089AE508B40139
:100764000E7D0A7F03120DE77D0A7F0402089AE5D5
:1007740008640260030208A77D0A7F06120DE77D64
:100784000A7F0702089A0208A4E5116406600302BE
:1007940008A7AE0CAF0D7C037DE812062BAD07E471
:1007A400FF120DE7AE0CAF0D7C037DE812062B7E25
:1007B400007F64CFCDCFCECCCE12062BAD077F0108
:1007C400120DE7AE0CAF0D7C007D6412062B7E008B
:1007D4007F0ACFCDCFCECCCE12062BAD077F02122F
:1007E4000DE7AE0CAF0D7C007D0A12062B7F0312C1
:1007F4000DE7AE0AAF0B7C037DE812062BAD077F35
:1008040004120DE7AE0AAF0B7C037DE812062B7EC3
:10081400007F64CFCDCFCECCCE12062BAD077F05A3
:10082400120DE7AE0AAF0B7C007D6412062B7E002E
:100834007F0ACFCDCFCECCCE12062BAD077F0612CA
:100844000DE7AE0AAF0B7C007D0A12062B7F071260
:100854000DE7E5097045750901E508701A7D0AFF81
:10086400120DE77D0A7F01120DE77D0A7F02120D4A
:10087400E77D0A7F03801FE508640170267D0A7FF7
:1008840004120DE77D0A7F05120DE77D0A7F06122B
:100894000DE77D0A7F07120DE78008E509B401031F
:1008A400750900E510B46403751000D007D006D0B4
:1008B40005D004D003D002D001D000D0D0D082D053
:0608C40083D0F0D0E03209
:10000E00D2A1D2A0120C628E168F17120F177F017B
:10001E00120CE9120EE2E4FD7F8E120ACF120ECB05
:10002E007D807F8E120ACF1209E80201A3120CAC5A
:10003E00120B77120D567F017E00120E9A120E468B
:10004E008F12E5126404600302010E751104120F83
:10005E0036120B77120D56120E468F12E512B4079A
:10006E000D120F36E4F511F508120D2280BFE512C0
:10007E00B4040D0508E50875F0038485F008807A50
:10008E00E512640B7038E508B4020E0546E546C36A
:10009E00943C4066E4F5468061E508B4010E0547E0
:1000AE00E547C3943C4053E4F547804EE508704A5B
:1000BE000548E548C394184041E4F548803CE512F4
:1000CE00640A7036E508B4020E1546E546C3940080
:1000DE00502875463B8023E508B4010E1547E547C9
:1000EE00C39400501575473B8010E508700C1548F9
:1000FE00E548C394005003754817120D560200626E
:10010E00E5126406600302003B120F367D0BE4FF1E
:10011E00120DE77D017F01120DE77D0B7F02120D9F
:10012E00E77D0A7F03120DE7AE16AF177C037DE85D
:10013E0012062BAD077F04120DE7AE16AF177C0328
:10014E007DE812062B7E007F64CFCDCFCECCCE12B3
:10015E00062BAD077F05120DE7AE16AF177C007D9F
:10016E006412062B7E007F0ACFCDCFCECCCE1206E8
:10017E002BAD077F06120DE7AE16AF177C007D0A7A
:10018E0012062B7F07120DE7120D56120E468F1216
:10019E00E512B40706120F3602003BE51264046046
:1001AE00030202BCF508751106120E468F12120DCF
:1001BE0056E512B40407050853080180ECE51264F5
:1001CE000B704FE508702174F4250DF50D74013593
:1001DE000CF50CC3E50D9488E50C6480949340C92E
:1001EE00750C13750D8880C1E508B401BC74F42537
:1001FE000BF50B7401350AF50AD3E50B950DE50CDD
:10020E006480F8E50A648098409F850C0A850D0B82
:10021E008097E512640A705AE5087029740C250D52
:10022E00F50D74FE350CF50CC3E50D950BE50A6462
:10023E0080F8E50C64809840030201B7850A0C85AE
:10024E000B0D0201B7E508640160030201B7740CDF
:10025E00250BF50B74FE350AF50AD3E50B9400E574
:10026E000A6480948040030201B7E4F50AF50B029C
:10027E0001B7E512640660030201B7E50CFF339582
:10028E00E0AD077F05120E80E50DFD7F06120E8094
:10029E00E50AFF3395E0AD077F07120E80E50BFDF3
:1002AE007F08120E80120F36E4F51102011AE512C4
:0702BE006409600302011A4C
:1002C500F5197D0AFF120DE77D0A7F01120DE77D05
:1002D5000A7F02120DE77D0A7F03120DE77D0A7F73
:1002E50004120DE77D0A7F05120DE7E4FD7F061276
:1002F5000DE7E50F60057D010203AFE4FD0203AFE5
:10030500120E468F12120D56E512640460030203A5
:10031500B71209E8E519603BE4F5197D0AFF120DEE
:10032500E77D0A7F01120DE77D0A7F02120DE77D49
:100335000A7F03120DE77D0A7F04120DE77D0A7F10
:1003450005120DE7E4FD7F06120DE7E50F60B17DAF
:10035500018057751901E50E75F00A84FDE4FF1259
:100365000DE7E50E75F00A84ADF07F01120DE77D0E
:100375000B7F02120DE7E51875F00A84FD7F031265
:100385000DE7E51875F00A84ADF07F04120DE77DE1
:100395000B7F05120DE7E51475F00A84FD7F061243
:1003A5000DE7E51475F00A84ADF07F07120DE7023D
:1003B5000305E51264066003020305120F36020108
:0103C5001A1D
:0E0F440081838587898B8D80828486888A8C44
:090B6D00073F5559230707062133
:0C0AC300EC900F4B93FF743F2CF8E6FD05
:020ACF00A90775
:100AD100D2A4E4FB74017E00A803088005C333CED1
:100AE10033CED8F9FFE9F582EF558224FF92A2D2E5
:100AF100A3C2A30BBB08DDE4FB74017E00A80308BD
:100B01008005C333CE33CED8F9FFEDF582EF5582A0
:0E0B110024FF92A2D2A3C2A30BBB08DDC2A494
:010B1F0022B3
:020BC900A9077A
:100BCB00E4FDC2A4C2A3D2A4FB74017E00A8030857
:100BDB008005C333CE33CED8F9FFE9F582EF5582CA
:100BEB0024FF92A2D2A3C2A30BBB08DDE4FB30A26D
:100BFB000D7401A803088002C333D8FC4205D2A3AD
:0C0C0B00C2A30BBB08E8C2A2C2A4AF0544
:010C170022BA
:100EE200C2A4C2A3E4FD7F8E120ACF7D807F8E0250
:020EF2000ACF25
:100ECB00E4FD7F8E120ACFE4FC120AC30CBC07F9B7
:070EDB007D807F8E020ACF2B
:100D2200E4FD7F8E120ACFE4FC74462CF8E6FF75D0
:100D3200F00A84C454F0FEEF75F00A84EE25F0FF49
:100D4200743F2CF8A607120AC30CBC07DC7D807F17
:040D52008E020ACF34
:100CAC00E4FCEC900F4493FF120BC9743F2CF8A694
:100CBC00070CBC07EDE4FC743F2CF8E6FFC4540FA2
:100CCC00FEEF540FFF74462CF8A607EE75F00AA43D
:0C0CDC00FF74462CF8EF26F60CBC07DB7A
:010CE80022E9
:100E65007F057E007D707C00ED1D70011CED4C70D2
:0A0E7500F7EF1F70011EEF4E70EA48
:010E7F002250
:090EF40024FF92A0120EFDD2A110
:080EFD00000000007F02DFFE8F
:010F050022C9
:0F0F2700D2A0D2A1120EFDC2A0120EFDC2A122B5
:0C0EB300120DB5AD077C00E4FF120F5ECD
:0C0EBF00C2A0D2A1120EFDD2A0020EFDB6
:080D8700120EBF120F277F912D
:020D8F00AD07AE
:100D9100E4FB74807E00A803088006CEA2E713CE90
:100DA10013D8F8FFEDF582EF5582120EF4C2A10BB4
:030DB100BB08DF9D
:010DB400221C
:100DB500E4FED2A0FDD2A1120EFD30A00D7480A8D4
:100DC50005088002C313D8FC4206C2A1120EFD0D10
:050DD500BD08E2AF06BD
:010DDA0022F6
:0C0F5E00EFF4120EF4C2A1D2A0020EFDAE
:0B0E2500120D8F120E30AF04120D8F63
:100E3000D2A0120EF8A2A0E433FE30A003120EBF1F
:050E4000C2A1EEF4FF69
:010E4500228A
:100E8000AC05AA07120F277FA0120D8F120E30AFEC
:0A0E900002120E25120EBF020E65BD
:020E0000AC073D
:100E0200120F277FA0120E25120F277FA1120D8F1E
:100E1200120E30120DB5AE077F01120F5E120EBF19
:020E2200AF0619
:010E240022AB
:100C1800120F277F90120D8F120E30EF7002801680
:100C28007F01120D8F120E30EF70028009120D87AE
:100C3800120E30EF7004FE7FFF22120EB3E412058D
:100C4800717B007A40799C78451203C6E4FBFA79F7
:090C58007F78431204CF1205AAB3
:010C61002270
:100C6200120F277F90120D8F120E30EF7002801636
:100C7200E4FF120D8F120E30EF70028009120D8701
:100C8200120E30EF7004FE7FFF22120EB3E4120543
:100C9200717B007A40799C78451203C6E4FBFA79AD
:090CA2007F78431204CF1205AA69
:010CAB002226
:1003C600EC4D6011E8497017ED33EC3304600DE431
:1003D600FCFFFEFD22E933E8330470F8020616122C
:1003E60005E158046009E4CC24815006285009022E
:1003F600062028400302061DC0E0EB4A7044B9807F
:1004060006D0E0FB02060CEF4E701CBD8008EBFF29
:10041600EAFEE9FD80EBE98DF0A4FEE5F00204AF0B
:10042600E9CDF9EAFEEBFFEF89F0A4FCE5F0CE8911
:10043600F0A42EFFE435F0CD89F0A42DFEE435F0CE
:100446008067EF4E7005BD80D780C3EF8BF0A4ACFC
:10045600F0EE8BF0A42CFCE435F0F8EF8AF0A42C37
:10046600E5F038FCE433CB8DF0A42CFCE5F03BF84A
:10047600EE8AF0A42CFCE5F038F8E433CF89F0A43A
:100486002CFCE5F038CF3400CE89F0A42FFFE5F040
:100496003EFEE433C98DF0A42EFEE5F039CD8AF098
:1004A600A42FFFE5F03EFEE43DFD33D0E0FB500710
:1004B6000BBB000F020620EC2CFCEF33FFEE33FEE5
:0604C600ED33FD0205F814
:1004CC00020620EC5D046005E85904700302061670
:1004DC001205E1580460F6EC4860F2EC7004FDFE85
:1004EC00FF22C860DB2481C85009C3986002500603
:1004FC0002061D9850CAF582E9294B4A7005AB8259
:10050C0002060C75F0007C1A7880C3EF9BEE9AED16
:10051C0099400DC3EF9BFFEE9AFEED99FDE842F07A
:10052C00DC23ACF0D0E0FFD0E0FED0E0FDAB8220CD
:10053C00E7101BEB60BAEC2CFCEF33FFEE33FEED57
:10054C0033FD0205F8E803F830E705C0F075F0005C
:10055C00EF2FFFEE33FEED33FD40B830E7C280AA3B
:10056C0075F020800E75F010800575F0087D007E0A
:10057C00007F003392D530D503120661EC33401066
:10058C00EF33FFEE33FEED33FDEC33FCD5F0ED2213
:0E059C00E5F0247EA2D513CC92E7CDCEFF224F
:1005AA00EDD2E7CD33EC3392D524814006E4FFFE49
:1005BA00FDFC22FCE4CFCECDCC24E0501174FF80A8
:1005CA00EDC3CC13CCCD13CDCE13CECF13CF047045
:0705DA00F030D5DE020661DE
:1005E100E9D2E7C933E833F892D5EDD2E7CD33EC60
:0705F10033FC5002B2D522D9
:1005F800EC30E7100FBF000C0EBE00080DBD000464
:100608000BEB6014A2D5EB13FCED92E7FD2274FF0F
:10061800FCFDFEFF22E480F8A2D574FF13FC7D8068
:03062800E480EF7C
:0300000002095C96
:0C095C00787FE4F6D8FD75814C0209A3F9
:10062B00C2D5EC30E709B2D5E4C39DFDE49CFCEEEA
:10063B0030E715B2D5E4C39FFFE49EFE12066FC3ED
:10064B00E49DFDE49CFC800312066F30D507C3E4E8
:06065B009FFFE49EFE2259
:0E066100C3E49FFFE49EFEE49DFDE49CFC22AA
:1009680002000EE493A3F8E493A34003F68001F297
:1009780008DFF48029E493A3F85407240CC8C33390
:10098800C4540F4420C8834004F456800146F6DF5F
:10099800E4800B0102040810204080900B20E47EC4
:1009A800019360BCA3FF543F30E509541FFEE49354
:1009B800A360010ECF54C025E060A840B8E493A31B
:1009C800FAE493A3F8E493A3C8C582C8CAC583CA46
:1009D800F0A3C8C582C8CAC583CADFE9DEE780BEFE
:010B7600007E
:10066F00BC000BBE0029EF8DF084FFADF022E4CC6F
:10067F00F875F008EF2FFFEE33FEEC33FCEE9DEC38
:10068F00984005FCEE9DFE0FD5F0E9E4CEFD22ED7E
:10069F00F8F5F0EE8420D21CFEADF075F008EF2FC8
:1006AF00FFED33FD4007985006D5F0F222C398FDB9
:0506BF000FD5F0EA2256
:00000001FF
