:0A0E9400EF1FAC0670011E4C600E4B
:0C0E9E00754902754AC7D54AFDD549FACE
:030EAA0080E822BB
:100EFD007590F0AF905307F0EF64F06002D322C30A
:010F0D0022C1
:10099D007590FF7590FEE590B47E037F0722E5907C
:1009AD00B4BE037F0B22E590B4DE037F0F22E590EA
:1009BD00B4EE037F13227590FDE590B47D037F06A1
:1009CD0022E590B4BD037F0A22E590B4DD037F0ECE
:1009DD0022E590B4ED037F12227590FBE590B47B78
:1009ED00037F0522E590B4BB037F0922E590B4DBBC
:1009FD00037F0D22E590B4EB037F11227590F7E58F
:100A0D0090B477037F0422E590B4B7037F0822E505
:100A1D0090B4D7037F0C22E590B4E7037F10227FBB
:020A2D000022A5
:0C0F59007590F0AF905307F0BFF0F52248
:100E3D00E4F548120EFD50147F027E00120E94123E
:0E0E4D000EFD500812099D8F48120F59AF4834
:010E5B002274
:100CA1000D093F065B4F666D7D077F6F0040800831
:100CB1001EFEFDFBF7EFDFBF7F08160000000000FE
:060CC10000000001080024
:100D4A007F06120CDD741E2508F8E6F5807F07126F
:100D5A000CDD74162508F8E6F5807F017E00120E78
:100D6A0094E4F5800508E508C394084003E4F5080F
:010D7A002256
:0C0DD300120DDF0F120DDF0F120DDF0FED
:100DDF00EFC394085012EDC3940D500C74092DF805
:090DEF00E6FE74162FF8A6062298
:030F65008F4B228D
:0E0F3D007D0BE4FF120DD30F120DD3020D4AEF
:100B8000E52F75F00A84FDE4FF120DDFE52F75F007
:100B90000A84ADF00F120DDF7D0B0F120DDFE52E75
:100BA00075F00A84FD0F120DDFE52E75F00A84AD95
:100BB000F00F120DDF7D0B0F120DDFE52D75F00A22
:100BC00084FD0F120DDFE52D75F00A84ADF00F02E4
:020BD0000DDF37
:090F0E007F05120F17D2A17F0527
:070F1700AE071FEE70FA2285
:100E1D00E4FDFCC3ED9FEC9E5015E4FBFA0BBB000B
:0F0E2D00010AEB64794A70F50DBD00010C80E4F9
:010E3C002293
:0F0F2E00D2A0120F13C2A07F05120F17C2A1226B
:060ED900120DF8120E815B
:0C0EDF00C2A0120F13D2A07F05020F1753
:100EC400EF6004C2A08002D2A0120F0EC2A1D2A071
:050ED4007F05020F176D
:080E7900120F2E7FA0120DF8EC
:100E8100D2A0120F0E30A007C2A1120EDFC322C2E0
:030E9100A1D322C8
:020DF800AD0745
:100DFA00E4FCED30E704D2A08002C2A07F05120F06
:100E0A0017D2A1ED25E0FD7F05120F17C2A10CBC78
:020E1A0008E0EE
:010E1C0022B3
:100E5C00E4FC120F13ED25E0FD30A003430501C2A5
:0C0E6C00A17F05120F170CBC08E8AF05B1
:010E78002257
:080C21008F3C8B3D8A3E893FA8
:100C2900E4F541E541C395405030120E79AF3C12CD
:100C39000DF8120E81AB3DAA3EA93F120DA8FF1275
:100C49000ED97401253FF53FE4353EF53E053C7F5D
:0A0C59000A7E00120E1D054180C93D
:010C6300226E
:080ABB008F428B438A448945F8
:100AC300120E79AF42120DF8120E81120F2E7FA172
:100AD300120DF8120E81E4F547E54614FFE547C30E
:100AE3009F5028120E5CAB43AA44A945EF120DC1D7
:100AF3007F01120EC474012545F545E43544F544E0
:100B03007F0A7E00120E1D054780CE120E5CAB439A
:100B1300AA44A945EF120DC1E4FF120EC4020EDF71
:020D7B00AB07C4
:100D7D00120F2E7F90120DF8120E81AF03120ED9A5
:100D8D00120F2E7F91120DF8120E81120E5CAD070F
:0A0D9D00E4FF120EC4120EDFAF05D2
:010DA7002229
:100CDD00EF603224FB601314601914601F2403703D
:100CED0027E5A0541F4480F5A022E5A0541F44A081
:100CFD00F5A022E5A0541F44C0F5A022E5A0541F85
:090D0D0044E0F5A02253A01F22CE
:0C0CC70001350001370001390001380040
:100F1E00758901758C3C758AAFD2A9D2AFD28C225D
:010F68002266
:010F69002265
:03000B00020901E6
:10090100C0E0C0F0C083C082C0D075D000C000C0BC
:1009110001C002C003C004C005C006C007758C3CFD
:10092100758AAF0538E53875F01484E5F0704AE54D
:100931003964047044120B80E537703A753701E56C
:1009410035700C7D0AFF120DDF7D0A7F018022E5E3
:1009510035B4010D7D0A7F03120DDF7D0A7F04800E
:1009610010E535B402137D0A7F06120DDF7D0A7F83
:1009710007120DDF8003753700E538B4640375385D
:1009810000D007D006D005D004D003D002D001D0CA
:0C09910000D0D0D082D083D0F0D0E03273
:10080000120F1E7F01120CDD120EEBE4FD7F8E1223
:100810000B2F120EAD7D807F8E120B2F8024120EB7
:100820003D8F3BE53BB407F6120C64120B80120DB2
:100830004A7F017E00120E94120E3D8F3BE53BB4C1
:100840000705120F3D80D7E53BB404DC753904126F
:100850000F3D120B80120D4A120E3D8F3BE53BB44B
:10086000070D120F3DE4F539F535120D1680B9E587
:100870003BB4040D0535E53575F0038485F035800E
:100880007AE53B640B7038E535B4020E052DE52D95
:10089000C3943C4066E4F52D8061E535B4010E0556
:1008A0002EE52EC3943C4053E4F52E804EE5357082
:1008B0004A052FE52FC394184041E4F52F803CE50D
:1008C0003B640A7036E535B4020E152DE52DC39450
:1008D000005028752D3B8023E535B4010E152EE51B
:1008E0002EC394005015752E3B8010E535700C1505
:1008F0002FE52FC394005003752F17120D4A0208DD
:0109000055A1
:0E0F4B0081838587898B8D80828486888A8C3D
:090CD300072655592307070621E5
:0C0B2300EC900F5293FF74262CF8E6FDB6
:020B2F00A90714
:100B3100D2A4E4FB74017E00A803088005C333CE70
:100B410033CED8F9FFE9F582EF558224FF92A2D284
:100B5100A3C2A30BBB08DDE4FB74017E00A803085C
:100B61008005C333CE33CED8F9FFEDF582EF558240
:0E0B710024FF92A2D2A3C2A30BBB08DDC2A434
:010B7F002253
:020BD200A90771
:100BD400E4FDC2A4C2A3D2A4FB74017E00A803084E
:100BE4008005C333CE33CED8F9FFE9F582EF5582C1
:100BF40024FF92A2D2A3C2A30BBB08DDE4FB30A264
:100C04000D7401A803088002C333D8FC4205D2A3A3
:0C0C1400C2A30BBB08E8C2A2C2A4AF053B
:010C200022B1
:100EEB00C2A4C2A3E4FD7F8E120B2F7D807F8E02E6
:020EFB000B2FBB
:100EAD00E4FD7F8E120B2FE4FC120B230CBC07F913
:070EBD007D807F8E020B2FE8
:100D1600E4FD7F8E120B2FE4FC742D2CF8E6FF7594
:100D2600F00A84C454F0FEEF75F00A84EE25F0FF55
:100D360074262CF8A607120B230CBC07DC7D807FDB
:040D46008E020B2FDF
:100C6400E4FCEC900F4B93FF120BD274262CF8A6E5
:100C7400070CBC07EDE4FC74262CF8E6FFC4540F03
:100C8400FEEF540FFF742D2CF8A607EE75F00AA49E
:0C0C9400FF742D2CF8EF26F60CBC07DBDB
:010CA0002231
:03000000020A2FC2
:0C0A2F00787FE4F6D8FD75814B020A7652
:100DA800BB010689828A83E0225002E722BBFE0249
:090DB800E32289828A83E493227C
:100DC100BB010689828A83F0225002F722BBFE0111
:020DD100F3220B
:100A3B00020800E493A3F8E493A34003F68001F2C9
:100A4B0008DFF48029E493A3F85407240CC8C333BC
:100A5B00C4540F4420C8834004F456800146F6DF8B
:100A6B00E4800B0102040810204080900CA1E47E6E
:100A7B00019360BCA3FF543F30E509541FFEE49380
:100A8B00A360010ECF54C025E060A840B8E493A347
:100A9B00FAE493A3F8E493A3C8C582C8CAC583CA72
:100AAB00F0A3C8C582C8CAC583CADFE9DEE780BE2A
:010CDC000017
:00000001FF
