:0A0BB400EF1FAC0670011E4C600E2E
:0C0BBE007534027535C7D535FDD534FA05
:030BCA0080E8229E
:100C3B007590F0AF905307F0EF64F06002D322C3CE
:010C4B002286
:100800007590FF7590FEE590B47E037F0722E5901A
:10081000B4BE037F0B22E590B4DE037F0F22E59088
:10082000B4EE037F13227590FDE590B47D037F063F
:1008300022E590B4BD037F0A22E590B4DD037F0E6C
:1008400022E590B4ED037F12227590FBE590B47B16
:10085000037F0522E590B4BB037F0922E590B4DB5A
:10086000037F0D22E590B4EB037F11227590F7E52D
:1008700090B477037F0422E590B4B7037F0822E5A4
:1008800090B4D7037F0C22E590B4E7037F10227F5A
:02089000002244
:0C0C8A007590F0AF905307F0BFF0F5221A
:100B4100E4F533120C3B50147F027E00120BB412F9
:0E0B51000C3B50081208008F33120C8AAF3391
:010B5F002273
:100AB2000D093F065B4F666D7D077F6F0040800822
:100AC2001EFEFDFBF7EFDFBF7F08160000000000EF
:060AD20000000001080015
:100A020075A0C0741E2508F8E6F58075A0E074167E
:100A12002508F8E6F5807F017E00120BB4E4F5802C
:0C0A22000508E508C394084003E4F5084B
:010A2E0022A5
:100BCD00EFC394085012EDC3940D500C74092DF819
:090BDD00E6FE74162FF8A60622AC
:030CAC008F36225E
:090C4C007F05120C55D2A17F05B1
:070C5500AE071FEE70FA224A
:100B0100E4FDFCC3ED9FEC9E5015E4FBFA0BBB002A
:0F0B1100010AEB64794A70F50DBD00010C80E418
:010B200022B2
:0F0C6C00D2A0120C51C2A07F05120C55C2A122BA
:060C2900120ADC120BA10F
:0C0C2F00C2A0120C51D2A07F05020C558F
:100BFF00EF6004C2A08002D2A0120C4CC2A1D2A0FE
:050C0F007F05020C55F9
:080B9900120C6C7FA0120ADCB3
:100BA100D2A0120C4C30A007C2A1120C2FC322C23A
:030BB100A1D322AB
:020ADC00AD0764
:100ADE00E4FCED30E704D2A08002C2A07F05120C28
:100AEE0055D2A1ED25E0FD7F05120C55C2A10CBC1F
:020AFE0008E00E
:010B000022D2
:100B6000E4FC120C51ED25E0FD30A003430501C269
:0C0B7000A17F05120C550CBC08E8AF0575
:010B7C002256
:080986008F268B278A2889299E
:10098E00E4F52BE52BC3952A5030120B99AF2612A6
:10099E000ADC120BA1AB27AA28A929120A87FF127B
:1009AE000C2974012529F529E43528F52805267F1B
:0A09BE000A7E00120B01052B80C910
:0109C800220C
:08091E008F2C8B2D8A2E892FEE
:10092600120B99AF2C120ADC120BA1120C6C7FA1D0
:10093600120ADC120BA1E4F531E53014FFE531C3F0
:100946009F5028120B60AB2DAA2EA92FEF120AA0DA
:100956007F01120BFF7401252FF52FE4352EF52E9E
:100966007F0A7E00120B01053180CE120B60AB2D83
:10097600AA2EA92FEF120AA0E4FF120BFF020C2FDA
:020A2F00AB0713
:100A3100120C6C7F90120ADC120BA1AF03120C296D
:100A4100120C6C7F91120ADC120BA1120B60AD0724
:0A0A5100E4FF120BFF120C2FAF059B
:010A5B002278
:1009C900EF603224FB601314601914601F24037054
:1009D90027E5A0541F4480F5A022E5A0541F44A098
:1009E900F5A022E5A0541F44C0F5A022E5A0541F9C
:0909F90044E0F5A02253A01F22E6
:030AD800013700E3
:100B2100E4FDFCC3ED9FEC9E5015E4FBFA0BBB000A
:0F0B3100010AEB64794A70F50DBD00010C80E4F8
:010B40002292
:100C5C00758901758C3C758AAFD2A9D2AFD28C2222
:100C1400C2A4C2A3D2A47E08EF1392A2D2A3EFC3AC
:040C240013FFDEF4E8
:010C280022A9
:0E0C7B007E08EF1392A2D2A3EFC313FFDEF4A4
:010C89002248
:100B7D00E4FFFED2A3C2A330A20D7401A806088023
:0B0B8D0002C333D8FC42070EBE08E88C
:010B9800223A
:0B0C9600120C14AF05120C7BC2A4224C
:0A0CA100E4FE120C14120B7DC2A435
:010CAB002226
:010CAF002222
:010CB0002221
:03000B00020A5C8A
:100A5C00C0E0C0F0C0D0758C3C758AAF0537E53767
:100A6C0075F00A84E5F07002B280E537B46405B223
:0B0A7C0087753700D0D0D0F0D0E032FA
:100BE600120B418F32E532600B75F00984ADF07F50
:070BF60001120BCD120A02EF
:020BFD0080E78F
:0300000002089261
:0C089200787FE4F6D8FD7581370208D9A4
:100A8700BB010689828A83E0225002E722BBFE026D
:090A9700E32289828A83E49322A0
:100AA000BB010689828A83F0225002F722BBFE0135
:020AB000F3222F
:10089E00020BE6E493A3F8E493A34003F68001F27F
:1008AE0008DFF48029E493A3F85407240CC8C3335B
:1008BE00C4540F4420C8834004F456800146F6DF2A
:1008CE00E4800B0102040810204080900AB2E47EFE
:1008DE00019360BCA3FF543F30E509541FFEE4931F
:1008EE00A360010ECF54C025E060A840B8E493A3E6
:1008FE00FAE493A3F8E493A3C8C582C8CAC583CA11
:10090E00F0A3C8C582C8CAC583CADFE9DEE780BEC8
:010ADB00001A
:00000001FF
